:100000000C9469000C9491000C9491000C94910054
:100010000C9491000C9491000C9491000C9491001C
:100020000C9491000C9491000C9491000C9491000C
:100030000C9491000C9491000C9491000C949100FC
:100040000C945B040C9491000C942C030C94060308
:100050000C9491000C9491000C9491000C949100DC
:100060000C9491000C949100240C500CAB0CC40B1C
:10007000FD0B040DDE0D00000000240027002A0007
:1000800000000000250028002B00000000080002EE
:100090000100000304070000000000000000000051
:1000A00000002300260029000404040404040404BE
:1000B0000202020202020303030303030102040813
:1000C00010204080010204081020010204081020C2
:1000D000800E11241FBECFEFD8E0DEBFCDBF12E0EF
:1000E000A0E0B1E0EEECF4E202C005900D92A03386
:1000F000B107D9F723E0A0E3B2E001C01D92A83414
:10010000B207E1F710E0C9E6D0E004C02197FE0194
:100110000E94770FC836D107C9F70E94350A0C94A0
:1001200065120C940000CF92DF92EF92FF920F9332
:100130001F93CF93DF936C017A018B01C0E0D0E075
:10014000CE15DF0589F0D8016D918D01D601ED91B5
:10015000FC910190F081E02DC6010995892B11F4E5
:100160007E0102C02196ECCFC701DF91CF911F9194
:100170000F91FF90EF90DF90CF900895FC01918D4B
:10018000828D981761F0828DDF01A80FB11D5D96F9
:100190008C91928D9F5F9F73928F90E008958FEF67
:1001A0009FEF0895FC01918D828D981731F0828D1B
:1001B000E80FF11D858D90E008958FEF9FEF089572
:1001C000FC01918D228D892F90E0805C9F4F821BD6
:1001D00091098F739927089589E492E00E94E000C5
:1001E00021E0892B09F420E0822F0895FC01848D01
:1001F000DF01A80FB11DA35ABF4F2C91848D90E051
:1002000001968F739927848FA689B7892C93A0892B
:10021000B1898C9180648C93938D848D981306C0E2
:100220000288F389E02D80818F7D80830895EF928D
:10023000FF920F931F93CF93DF93EC0181E0888FA0
:100240009B8D8C8D981305C0E889F989808185FD87
:1002500024C0F62E0B8D10E00F5F1F4F0F73112778
:10026000E02E8C8DE8120CC00FB607FCFACFE8899F
:10027000F989808185FFF5CFCE010E94F600F1CF8C
:100280008B8DFE01E80FF11DE35AFF4FF0820B8FBB
:10029000EA89FB898081806207C0EE89FF896083DB
:1002A000E889F98980818064808381E090E0DF9132
:1002B000CF911F910F91FF90EF900895CF93DF930F
:1002C000EC01888D8823C9F0EA89FB89808185FD4E
:1002D00005C0A889B9898C9186FD0FC00FB607FCAF
:1002E000F5CF808185FFF2CFA889B9898C9185FFF0
:1002F000EDCFCE010E94F600E7CFDF91CF910895B8
:1003000080E090E0892B29F00E94EC0081110C9490
:10031000000008952FB7F89460913502709136026D
:1003200080913702909138022FBF089520913202B8
:10033000309133028091450290914602211531059A
:1003400011F0019601C001979093460280934502F7
:100350008091450290914602893C910550F081E0E0
:1003600090E0232B11F080E090E090933302809393
:1003700032028091320290913302880F991F0197C7
:10038000089580E480937C0080917A00806480935B
:100390007A0080917A0086FDFCCF809178002091D0
:1003A000790090E0922B9093310280933002893E45
:1003B00023E092078CF4823391058CF08A3F9105FB
:1003C0008CF0823C21E0920784F08A3822E0920788
:1003D0007CF0823593407CF085E090E0089580E0E9
:1003E00090E0089581E090E0089582E090E0089523
:1003F00083E090E0089584E090E0089580E890E044
:100400000895EF92FF920F931F93CF93DF93EC0128
:100410007B0101E010E0E881F9810190F081E02D9D
:10042000CE010995801791074CF0E016F10619F4FA
:10043000FF8AEE8A03C0000F111FEDCF8E899F89BE
:10044000DF91CF911F910F91FF90EF9008954F9200
:100450005F926F927F928F929F92AF92BF92CF9254
:10046000DF92EF92FF926B017C01B42E9B01AC01F5
:100470000E944612882319F084E291E027C02601E9
:100480003701E89477F82FEF3FEF4FE75FE7C301BD
:10049000B2010E94461281110DC02FEF3FEF4FE7CE
:1004A0005FE7C301B2010E942F1018161CF488E206
:1004B00091E00CC02FEF3FEF4FE75FE4C701B601BB
:1004C0000E948E11181684F48CE291E0FF90EF9058
:1004D000DF90CF90BF90AF909F908F907F906F9064
:1004E0005F904F900C9452092FEF3FEF4FE75FEC76
:1004F000C701B6010E942F1087FDE6CF20E030E053
:10050000A901C701B6010E942F1087FF11C0E09119
:10051000FA02F091FB020190F081E02D6DE28AEF8A
:1005200092E009954C01F7FAF094F7F8F09402C0C4
:10053000812C912CA12C60E070E080E09FE3AB1453
:1005400041F020E030E040E251E40E943410A394F6
:10055000F6CF9B01AC01C701B6010E94C30F2B016E
:100560003C010E94AD106B017C010E94DC109B01DC
:10057000AC01C301B2010E94C20F2B013C014AE051
:10058000C701B6010E9479097C01E80CF91CBB2067
:1005900031F080E391E00E945209E80EF91EDB2C55
:1005A000DD2021F120E030E040E251E4C301B2015E
:1005B0000E9493112B013C010E94AD104B01A12C14
:1005C000B12C4AE0C501B4010E947909E80EF91E78
:1005D000C501B4010E94DC109B01AC01C301B20152
:1005E0000E94C20F2B013C01DA94DACFC701FF90C1
:1005F000EF90DF90CF90BF90AF909F908F907F90C3
:100600006F905F904F9008950E9460121F920F921A
:100610000FB60F9211242F933F934F935F936F93D5
:100620007F938F939F93AF93BF93EF93FF9389E44F
:1006300092E00E94F600FF91EF91BF91AF919F91E0
:100640008F917F916F915F914F913F912F910F907B
:100650000FBE0F901F9018951F920F920FB60F921A
:1006600011242F938F939F93EF93FF93E09159025F
:10067000F0915A028081E0915F02F091600282FD68
:1006800012C09081809162028F5F8F73209163020C
:10069000821751F0E0916202F0E0E75BFD4F958F29
:1006A0008093620201C08081FF91EF919F918F91B1
:1006B0002F910F900FBE0F901F90189590E0FC01A6
:1006C000E657FF4F3491FC01E454FF4F2491FC01A5
:1006D000E855FF4FE491EE2309F43BC0332339F191
:1006E000333091F038F43130A9F0323001F584B56F
:1006F0008F7D12C0373091F03830A1F03430B9F42A
:10070000809180008F7D03C0809180008F778093DF
:1007100080000DC084B58F7784BD09C08091B00082
:100720008F7703C08091B0008F7D8093B000F0E0A0
:10073000EE0FFF1FE058FF4FA591B4918FB7F894CB
:10074000EC91611103C020952E2301C02E2B2C9318
:100750008FBF0895CF93DF93EC0160E08E810E94FC
:100760005E0361E08E810E945E0360E08E810E94E4
:100770005E038BE891E00197F1F7DF91CF91089547
:10078000CF93DF9390E0FC01E454FF4F2491FC01F0
:10079000E855FF4F8491882361F190E0880F991FFD
:1007A000FC01EA58FF4FC591D491FC01E058FF4F7E
:1007B000A591B491611109C09FB7F89488812095E3
:1007C00082238883EC912E230BC0623061F49FB7A3
:1007D000F8943881822F809583238883EC912E2B87
:1007E0002C939FBF06C08FB7F894E8812E2B2883E7
:1007F0008FBFDF91CF9108953FB7F8948091390270
:1008000090913A02A0913B02B0913C0226B5A89B80
:1008100005C02F3F19F00196A11DB11D3FBFBA2F92
:10082000A92F982F8827820F911DA11DB11DBC01F2
:10083000CD0142E0660F771F881F991F4A95D1F7B7
:1008400008958F929F92AF92BF92CF92DF92EF92D4
:10085000FF926B017C010E94FC034B015C01C114FF
:10086000D104E104F104F1F00E94FC03DC01CB01AE
:1008700088199909AA09BB09883E9340A105B105C9
:1008800070F321E0C21AD108E108F10888EE880E61
:1008900083E0981EA11CB11CC114D104E104F10431
:1008A00019F7DDCFFF90EF90DF90CF90BF90AF9022
:1008B0009F908F9008951F920F920FB60F92112460
:1008C0002F933F938F939F93AF93BF938091350264
:1008D00090913602A0913702B091380230913402E3
:1008E00023E0230F2D3720F40196A11DB11D05C073
:1008F00026E8230F0296A11DB11D20933402809398
:10090000350290933602A0933702B093380280915B
:10091000390290913A02A0913B02B0913C020196BB
:10092000A11DB11D8093390290933A02A0933B021E
:10093000B0933C02BF91AF919F918F913F912F91C6
:100940000F900FBE0F901F901895CF92DF92EF92ED
:10095000FF920F931F93CF93DF937C016C0187E08D
:10096000C80ED11CC0E0D0E0062F10E0B8010C2E5C
:1009700002C0759567950A94E2F76170F60181915E
:100980006F010E945E032196C430D10579F7C7013B
:10099000DF91CF911F910F91FF90EF90DF90CF905B
:1009A0000C94AA03CF92DF92EF92FF920F931F93C2
:1009B000CF93DF93EC01F62E642F8C810E945E03AF
:1009C0008D818F3F19F060E00E945E038F850F2DAF
:1009D00010E084FF25C06E0187E0C80ED11CE12C19
:1009E000F12CB8010E2C02C0759567950A94E2F7B8
:1009F0006170F60181916F010E945E03FFEFEF1AB3
:100A0000FF0A88E0E816F10461F7CE01DF91CF918B
:100A10001F910F91FF90EF90DF90CF900C94AA035D
:100A2000B80184E0759567958A95E1F7CE010E943B
:100A3000A5046F2DCE01DF91CF911F910F91FF90F3
:100A4000EF90DF90CF900C94A50441E00E94D20477
:100A500081E090E0089540E00C94D2042F923F9200
:100A60004F925F926F927F928F929F92AF92BF92BE
:100A7000CF92DF92EF92FF920F931F93CF93DF936A
:100A80006B017C018091360390913703A09138036C
:100A9000B091390340913E0350913F036091400370
:100AA000709141038090320390903303A0903403FF
:100AB000B090350340903A0350903B0360903C0364
:100AC00070903D030097A105B10599F16CF04817AE
:100AD00059076A077B075CF4481459046A047B04CD
:100AE0004CF422E030E008C020E030E005C023E014
:100AF00030E002C021E030E02115310519F3233048
:100B000031050CF02EC18C0D9D1DAE1DBF1DF7FED5
:100B100007C084179507A607B70714F4DB01CA01BD
:100B20008093360390933703A0933803B09339032F
:100B300018C1D701C60180959095A095B0958827DA
:100B4000B7FD83959927AA27BB27909347038093E6
:100B50004603109218031092190310921A03109270
:100B60001B03F7FE08C0F094E094D094C094C11C1D
:100B7000D11CE11CF11CC0923603D0923703E092E5
:100B80003803F0923903109232031092330310921B
:100B9000340310923503109214031092150310922F
:100BA00016031092170380912C0390912D0320912E
:100BB0002A0330912B030091200310912103C0914F
:100BC0002803D0912903019709F099C0209FC00103
:100BD000219F900D309F900D11246CE370E00E94D6
:100BE000220F00912E0310912F039B01DB010E9425
:100BF0007D0F9B01AC01DE010E94A60F9801220F20
:100C0000331F032E000C440B550B0E94580F490153
:100C10005A0120933A0330933B0340933C03509393
:100C20003D0320903003309031032101032C000C50
:100C300066087708D8010E94A60FA30192010E94BE
:100C4000580F20933E0330933F034093400350934B
:100C50004103D501C401820F931FA41FB51FC816FD
:100C6000D906EA06FB061CF5A7019601C301B201ED
:100C70000E94120F9801220D331D032E000C440B0D
:100C8000550B0E94580F20933A0330933B03409337
:100C90003C0350933D03C21AD30AE40AF50AC092FA
:100CA0003E03D0923F03E0924003F09241030C9F39
:100CB000B0010D9F700D1C9F700D1124072E000CAC
:100CC000880B990B0E94DE109B01AC0160E070E084
:100CD00080E090E40E9434100E94061220E03AE086
:100CE00045E259E40E9493110E94A61060934203CA
:100CF00070934303809344039093450332C0032EC3
:100D0000000C440B550B60E077E883E993E00E9408
:100D1000580FCA01B9019801110F440B550B0E94DD
:100D2000580FCA01B9019E01DD0F440B550B0E94FB
:100D3000580F20934203309343034093440350934E
:100D4000450310923A0310923B0310923C03109219
:100D50003D0310923E0310923F0310924003109205
:100D60004103DF91CF911F910F91FF90EF90DF90A2
:100D7000CF90BF90AF909F908F907F906F905F903B
:100D80004F903F902F9008954F925F926F927F9275
:100D90008F929F92AF92BF92CF92DF92EF92FF928B
:100DA0000F931F93CF93DF93CDB7DEB728970FB67E
:100DB000F894DEBF0FBECDBF0E942E058091360392
:100DC00090913703A0913803B09139031816190692
:100DD0001A061B060CF08FC1C0901803D09019039F
:100DE000E0901A03F0901B0380901C0390901D0369
:100DF000A0901E03B0901F0381149104A104B104BC
:100E000039F560914603809122030E945E0361E000
:100E1000809124030E945E030E94FC036D837E8305
:100E20008F839887C0904203D0904303E09044039F
:100E3000F09045038091360390913703A0913803D9
:100E4000B0913903181619061A061B06C4F015C10D
:100E5000C114D104E104F10421F40E94FC036B01EC
:100E60007C010E94FC03DC01CB018C199D09AE09B9
:100E7000BF0988159905AA05BB0598F3C2CF9C0147
:100E8000AD012150310941095109209336033093B6
:100E90003703409338035093390380903203909086
:100EA0003303A0903403B09035038FEF881A980A6B
:100EB000A80AB80A8092320390923303A0923403B6
:100EC000B092350380912C0390912D03019709F086
:100ED000D4C02115310541055105E9F080913E034B
:100EE00090913F03A0914003B09141038217930773
:100EF000A407B5079CF480913A0390913B03A0911D
:100F00003C03B0913D0388159905AA05BB054CF437
:100F100082E090E008C080E090E005C083E090E0CF
:100F200002C081E090E081309105F1F1039709F072
:100F3000A4C08090140390901503A0901603B09065
:100F40001703ACEFBFEF0E94A90F2B013C01D701A3
:100F5000C601880F991FAA1FBB1FBC01CD01680DD8
:100F6000791D8A1D9B1DA301920120953095409506
:100F700050950E94580FD701C601820F931FA41FDE
:100F8000B51F8093420390934303A0934403B0930F
:100F90004503880F991FAA1FBB1FBC01CD01680D17
:100FA000791D8A1D9B1D59C0209114033091150392
:100FB000409116035091170329833A834B835C8336
:100FC0002401350162E0440C551C661C771C6A95AF
:100FD000D1F7D701C601880F991FAA1FBB1F280F81
:100FE000391F4A1F5B1FCA01B901A3019201209555
:100FF0003095409550950E94580FBA01A9014C0DAB
:101000005D1D6E1D7F1D409342035093430360930B
:1010100044037093450380913A0390913B03A09160
:101020003C03B0913D0388169906AA06BB068CF4D2
:10103000DB01CA01880F991FAA1FBB1F29813A81B2
:101040004B815C81280F391F4A1F5B1FCA01B90100
:1010500004C060E070E0CB0108C0A30192012F5FE3
:101060003F4F4F4F5F4F0E94580F60931403709390
:10107000150380931603909317030E94FC038B01C2
:101080004D815E81041B150B69F40E94FC034B012A
:101090005C010E94FC03681579058A059B05C9F36C
:1010A00001E010E060E0809124030E945E030E9452
:1010B000FC03609318037093190380931A039093B1
:1010C0001B03C801A0E0B0E08C159D05AE05BF056F
:1010D0002CF4C81AD90AEA0AFB0A04C0C12CD12C84
:1010E0007601C394C0921C03D0921D03E0921E03AC
:1010F000F0921F0310C0109218031092190310925F
:101100001A0310921B0310921C0310921D031092DD
:101110001E0310921F0380911C0390911D03A09148
:101120001E03B0911F03892B8A2B8B2B09F046CE0F
:1011300028960FB6F894DEBF0FBECDBFDF91CF91DA
:101140001F910F91FF90EF90DF90CF90BF90AF90E5
:101150009F908F907F906F905F904F900895EF9247
:10116000FF920F931F93CF93DF93EC01623018F03F
:101170008F8588608F876B8B1C8A80E48D8B80E1E4
:101180008E8B80E58F8B61E08C810E94C0038D8106
:101190008F3F19F061E00E94C00361E08E810E94E0
:1011A000C0037E0187E0E80EF11C00E010E08F85AF
:1011B00084FD03C084E090E002C088E090E008175E
:1011C00019074CF461E0F70181917F010E94C0038F
:1011D0000F5F1F4FECCF8BE39DE00197F1F760E0CD
:1011E0008C810E945E0360E08E810E945E038D818F
:1011F0008F3F19F060E00E945E036F8564FD1DC0A3
:1012000063E0CE010E94A5040BE416E4C801019737
:10121000F1F763E0CE010E94A504C8010197F1F740
:1012200063E0CE010E94A50483E592E00197F1F707
:1012300062E0CE010E94A50416C06062CE010E9449
:101240002B058BE496E40197F1F76F856062CE0180
:101250000E942B0583E592E00197F1F76F856062AC
:10126000CE010E942B056F856062CE010E942B0586
:1012700084E0888B6CE0CE010E942B0561E0CE01FA
:101280000E942B058BE39FE10197F1F782E0898BA8
:1012900066E0CE01DF91CF911F910F91FF90EF900B
:1012A0000C942B05009769F0FC0101900020E9F7F0
:1012B0003197AF01481B590BBC018AEF92E00C94A7
:1012C000930080E090E008950C945209843008F077
:1012D00083E090910D03891710F08FEF890FE82FAD
:1012E000F0E0E650FD4F648960688AEF92E00C946C
:1012F0002B058F929F92AF92BF920F931F93CF9324
:10130000DF93CDB7DEB7A1970FB6F894DEBF0FBE5F
:10131000CDBF19A2423008F44AE08E010F5D1F4F85
:10132000842E912CA12CB12CA50194010E94360F82
:10133000E62FB901CA0101501109EA3014F4E05D49
:1013400001C0E95CD801EC93232B242B252B61F7FA
:10135000C8010E945209A1960FB6F894DEBF0FBED5
:10136000CDBFDF91CF911F910F91BF90AF909F9014
:101370008F900895CF92DF92EF92FF92CF93DF93F9
:101380006C01990FEE08FF08F7FE1FC0E091FA020A
:10139000F091FB020190F081E02D6DE28AEF92E086
:1013A0000995EC0166277727CB016C197D098E0919
:1013B0009F094AE00E9479098C0F9D1FDF91CF9110
:1013C000FF90EF90DF90CF9008954AE0C701B601FB
:1013D000DF91CF91FF90EF90DF90CF900C9479093F
:1013E000CF92DF92EF92FF920F931F93E82FF92F86
:1013F00005C0015011092109310961F1908196233D
:101400009417B9F305C0015011092109310911F1EF
:10141000908196239413F7CFC12CD12CE12CF12C81
:101420000AC08FEFC81AD80AE80AF80A0C151D0579
:101430002E053F0579F080818623841791F36C2D6A
:101440007D2D8E2D9F2D1F910F91FF90EF90DF909E
:10145000CF90089560E070E080E090E01F910F91E0
:10146000FF90EF90DF90CF900895CF93DF9300D05F
:1014700000D0CDB7DEB7789484B5826084BD84B5E2
:10148000816084BD85B5826085BD85B5816085BD7F
:1014900080916E00816080936E0010928100809137
:1014A00081008260809381008091810081608093BF
:1014B0008100809180008160809380008091B100E4
:1014C00084608093B1008091B00081608093B0000F
:1014D00080917A00846080937A0080917A008260A3
:1014E00080937A0080917A00816080937A00809165
:1014F0007A00806880937A001092C10062E08AEFDF
:1015000092E00E94AF0880E00E94660982E391E0C9
:101510000E94640961E0809122030E94C00361E09F
:10152000809122030E945E0361E0809124030E9467
:10153000C00360E0809124030E945E038091260333
:10154000909127038F3F2FEF920741F061E00E94B7
:10155000C00361E0809126030E945E0388E790E06B
:1015600090932B0380932A0368E070E082E193E07C
:101570000E94010280912603909127038F3F3FEF45
:10158000930719F060E00E945E0361E08FE00E9423
:10159000C003E0915902F0915A0282E08083E09109
:1015A0005502F09156021082E0915702F0915802D4
:1015B0008FEC808310926102E0915D02F0915E02F7
:1015C00086E08083E0915B02F0915C028081806123
:1015D0008083E0915B02F0915C028081886080836F
:1015E000E0915B02F0915C02808180688083E091F1
:1015F0005B02F0915C0280818F7D808380E00E949D
:10160000660983E491E00E94640981E00E94660912
:1016100084E591E00E94640960ED77E080E090E06D
:101620000E94210493E2E92EF12C2AE3822E912CD0
:10163000A12CB12C44244394512C45E0C42ED12C30
:101640005AE0652E712C64E0262E312C60E08091EA
:10165000E6020E945E0383E090E00197F1F761E00B
:101660008091E6020E945E03C7010197F1F760E0F6
:101670008091E6020E945E038091E8029091E90267
:101680009927FC01E454FF4F6491FC01E855FF4F9A
:10169000E491F0E0EE0FFF1FE256FF4F8591949129
:1016A0000091EA021091EB022091EC023091ED02E0
:1016B0003F70462F0E94F009611571058105910563
:1016C00039F0DC01CB010196A11DB11DBF7003C033
:1016D00080E090E0DC018093EE029093EF02A09313
:1016E000F002B093F102892B8A2B8B2B81F480912D
:1016F000EA029091EB02A091EC02B091ED0280938E
:10170000EE029093EF02A093F002B093F102609189
:10171000EE027091EF028091F0029091F102A5012A
:1017200094010E94580F2093F2023093F3024093E9
:10173000F4025093F502309348022093470200913F
:10174000450210914602B801012E000C880B990B3E
:101750000E94DE1026E636E646E65EE30E9493111E
:10176000609341027093420280934302909344023B
:10177000E0910201F0910301E730F10508F0AEC2FB
:10178000EC5CFF4F0C94770F80E00E94660984E6C2
:1017900091E00E94640981E00E94660985E791E07A
:1017A0000E94640980914702909148020E94BA0900
:1017B00080E891E00E94640980914702909148027C
:1017C0000197099710F461E001C060E08FE00E948A
:1017D0005E030E94C101059709F480C230920301A3
:1017E000209202016AE070E080E090E00E94210413
:1017F0000E94C1010597E1F771C2083C110544F44C
:101800000E949601BC01990F880B990B0E94C40697
:1018100080E00E94660985E891E00E94640981E009
:101820000E94660986E991E00E9464090E94C10154
:10183000059709F453C28091450290914602883C75
:10184000910509F04BC24DC280E00E94660987EA0B
:1018500091E00E94640981E00E94660988EB91E0B2
:101860000E9464090E94C101049709F037C2509296
:101870000301409202010E948A0160933D0270932D
:101880003E0280933F02909340026AE070E080E065
:1018900090E00E9421040E94C1010497E1F31EC25E
:1018A00080E00E94660989EC91E00E94640981E071
:1018B0000E9466098AED91E00E9464090E94C101BC
:1018C000049751F446E050E0509303014093020125
:1018D00070920101609200010E94C1018230910565
:1018E00071F490930301809302010E948A01609336
:1018F0003D0270933E0280933F029093400280919C
:101900003D0290913E02A0913F02B09140029C01A5
:10191000AD012854344F4F4F5F4F29833A834B8397
:101920005C830E948A0129813A814B815C81261760
:1019300037074807590720F410920301109202015B
:101940006AE070E080E090E00E9421040E94C10102
:101950000597E1F7C3C180E00E9466098BEE91E034
:101960000E94640981E00E9466098CEF91E00E9468
:1019700064090E94C101049741F4D0920301C0920E
:10198000020170920101609200010E94C101813048
:10199000910571F490930301809302010E948A01E2
:1019A00060933D0270933E0280933F029093400209
:1019B00080913D0290913E02A0913F02B091400281
:1019C0009C01AD012854344F4F4F5F4F29833A8318
:1019D0004B835C830E948A0129813A814B815C811F
:1019E000261737074807590720F410920301109271
:1019F00002016AE070E080E090E00E9421040E9411
:101A0000C1010597E1F76AC180E00E9466098DE097
:101A100092E00E94640960914102709142028091BB
:101A200043029091440242E00E94270286E192E044
:101A30000E94640981E00E94660981E00E946609B3
:101A40008CE192E00E9464098091470290914802E3
:101A50000E94BA0982E292E00E946409809100012A
:101A6000909101010E94BA0983EA91E00E94640901
:101A7000809147029091480200910001109101016C
:101A8000801791072CF41816190614F461E001C0B0
:101A900060E08FE00E945E030E94C101019771F433
:101AA000C8010196843291052CF490930101809332
:101AB000000104C0F0920101E09200010E94C10106
:101AC000029789F48091000190910101019785307E
:101AD00091052CF0909301018093000104C0D092F5
:101AE0000101C09200010E94C101049781F442E00B
:101AF00050E050930301409302010E948A016093D9
:101B00003D0270933E0280933F02909340020E94F8
:101B1000C101892BF9F4809145029091460201960A
:101B20009093460280934502893C91053CF088ECF5
:101B300090E0909346028093450206C061E070E019
:101B400080E090E00E94C40664E670E080E090E0EF
:101B50000E9421040E94C1010397D9F4809145029B
:101B6000909146020197909346028093450297FF19
:101B700005C0109246021092450205C06FEF7FEF3C
:101B8000CB010E94C40664E670E080E090E00E9411
:101B900021046AE070E080E090E00E9421040E944D
:101BA000C101059709F49AC00E94C101892B09F46B
:101BB00095C00E94C101039791F790C00E949601C1
:101BC000BC01990F880B990B0E94C40680E00E940B
:101BD000660988E292E00E94640960914102709176
:101BE0004202809143029091440242E00E94270207
:101BF00086E192E00E94640981E00E9466098CE11E
:101C000092E00E94640980914702909148020E94EC
:101C1000BA0982E292E00E946409809100019091E9
:101C200001010E94BA0983EA91E00E94640980914F
:101C30004702909148020091000110910101801724
:101C400091072CF41816190614F461E001C060E045
:101C50008FE00E945E030E94C101019771F4C801E8
:101C60000196843291052CF4909301018093000138
:101C700004C0F0920101E09200010E94C1010297AC
:101C800089F48091000190910101019785309105BF
:101C90002CF0909301018093000104C0D0920101C7
:101CA000C09200010E94C101049771F45092030197
:101CB000409202010E948A0160933D0270933E02AD
:101CC00080933F02909340026AE070E080E090E0F1
:101CD0000E9421040E94C1010597E1F70E94800142
:101CE000B5CC10920301109202016AE070E080E02E
:101CF00090E00E9421040E94C1010597E1F7EECF18
:101D0000E9E4F2E01382128288EE93E0A0E0B0E012
:101D100084839583A683B78388E091E09183808351
:101D200085EC90E09587848784EC90E097878687A0
:101D300080EC90E0918B808B81EC90E0938B828B98
:101D400082EC90E0958B848B86EC90E0978B868B71
:101D5000118E128E138E148EE2E1F3E080E291E098
:101D600091838083168217821086118612861386CD
:101D70001486158688EC90E0978786878CE090E043
:101D8000918B808B8DE090E0938B828B8FEF9FEF18
:101D9000958B848B81E090E0978B868B118E108ED3
:101DA000138E128E88EE93E0958F848F978F868F97
:101DB000EAEFF2E01382128288E191E0918380835E
:101DC00088E084838FEF858389E0868384E087833E
:101DD00085E0808786E0818787E082871386148686
:101DE00015861686178661E0CF010E94AF0861E074
:101DF00082E00E94C00360E083E00E94C003E6EE40
:101E0000F2E082E090E09183808383E090E093832E
:101E1000828388EB9BE0A0E0B0E084839583A68377
:101E2000B7830895DB018F939F930E949B0FBF910F
:101E3000AF91A29F800D911DA39F900DB29F900D19
:101E40001124089597FB072E16F4009407D077FD10
:101E500009D00E94AE0F07FC05D03EF49095819505
:101E60009F4F0895709561957F4F0895A1E21A2EB6
:101E7000AA1BBB1BFD010DC0AA1FBB1FEE1FFF1F2E
:101E8000A217B307E407F50720F0A21BB30BE40B7E
:101E9000F50B661F771F881F991F1A9469F76095C5
:101EA0007095809590959B01AC01BD01CF0108957F
:101EB000052E97FB1EF400940E946F0F57FD07D06C
:101EC0000E94360F07FC03D04EF40C946F0F509510
:101ED0004095309521953F4F4F4F5F4F0895909516
:101EE0008095709561957F4F8F4F9F4F0895EE0FAE
:101EF000FF1F0590F491E02D09940E94850F332374
:101F000012F48A1B9B0B0C94960FA29FB001B39FF7
:101F1000C001A39F700D811D1124911DB29F700DF2
:101F2000811D1124911D08950E94850FB7FF08950A
:101F3000821B930B08950E94850FA59F900DB49F5F
:101F4000900DA49F800D911D11240895B7FF0C944E
:101F50009B0F0E949B0F821B930B0895AA1BBB1B18
:101F600051E107C0AA1FBB1FA617B70710F0A61B99
:101F7000B70B881F991F5A95A9F780959095BC01BA
:101F8000CD0108955058BB27AA270E94DA0F0C9460
:101F900054110E94461138F00E944D1120F039F47E
:101FA0009F3F19F426F40C9443110EF4E095E7FBDF
:101FB0000C943D11E92F0E94651158F3BA1762077E
:101FC00073078407950720F079F4A6F50C94871120
:101FD0000EF4E0950B2EBA2FA02D0B01B901900144
:101FE0000C01CA01A0011124FF27591B99F0593F88
:101FF00050F4503E68F11A16F040A22F232F342FD0
:102000004427585FF3CF469537952795A795F0401D
:102010005395C9F77EF41F16BA0B620B730B840B32
:10202000BAF09150A1F0FF0FBB1F661F771F881FEA
:10203000C2F70EC0BA0F621F731F841F48F4879542
:1020400077956795B795F7959E3F08F0B0CF939534
:10205000880F08F09927EE0F9795879508950E94AD
:10206000191108F481E008950E9448100C9454114D
:102070000E944D1158F00E94461140F029F45F3F34
:1020800029F00C943D1151110C9488110C944311BA
:102090000E94651168F39923B1F3552391F3951BC1
:1020A000550BBB27AA2762177307840738F09F5F79
:1020B0005F4F220F331F441FAA1FA9F335D00E2EE6
:1020C0003AF0E0E832D091505040E695001CCAF753
:1020D0002BD0FE2F29D0660F771F881FBB1F261716
:1020E00037074807AB07B0E809F0BB0B802DBF01ED
:1020F000FF2793585F4F3AF09E3F510578F00C94BC
:102100003D110C9488115F3FE4F3983ED4F386951B
:1021100077956795B795F7959F5FC9F7880F911DDC
:102120009695879597F90895E1E0660F771F881FC8
:10213000BB1F621773078407BA0720F0621B730B7B
:10214000840BBA0BEE1F88F7E09508950E94AD103E
:102150006894B1110C94881108950E946D1188F053
:102160009F5798F0B92F9927B751B0F0E1F0660F5B
:10217000771F881F991F1AF0BA95C9F714C0B1309C
:1021800091F00E948711B1E008950C948711672F98
:10219000782F8827B85F39F0B93FCCF386957795CB
:1021A0006795B395D9F73EF49095809570956195B4
:1021B0007F4F8F4F9F4F0895E89409C097FB3EF4DF
:1021C00090958095709561957F4F8F4F9F4F992384
:1021D000A9F0F92F96E9BB279395F6958795779502
:1021E0006795B795F111F8CFFAF4BB0F11F460FFC2
:1021F0001BC06F5F7F4F8F4F9F4F16C0882311F01A
:1022000096E911C0772321F09EE8872F762F05C02D
:10221000662371F096E8862F70E060E02AF09A95C8
:10222000660F771F881FDAF7880F9695879597F9BD
:102230000895990F0008550FAA0BE0E8FEEF161657
:102240001706E807F907C0F012161306E407F507AA
:1022500098F0621B730B840B950B39F40A2661F01E
:10226000232B242B252B21F408950A2609F4A140C1
:10227000A6958FEF811D811D089597F99F6780E8CE
:1022800070E060E008959FEF80EC089500240A94C8
:102290001616170618060906089500240A94121641
:1022A0001306140605060895092E0394000C11F474
:1022B000882352F0BB0F40F4BF2B11F460FF04C021
:1022C0006F5F7F4F8F4F9F4F089557FD9058440F7A
:1022D000551F59F05F3F71F04795880F97FB991F85
:1022E00061F09F3F79F08795089512161306140642
:1022F000551FF2CF4695F1DF08C0161617061806CF
:10230000991FF1CF86957105610508940895E894A9
:10231000BB2766277727CB0197F908950E941911EB
:1023200008F48FEF08950E94A6110C9454110E9496
:10233000461138F00E944D1120F0952311F00C94B5
:102340003D110C94431111240C9488110E946511C5
:1023500070F3959FC1F3950F50E0551F629FF001F8
:10236000729FBB27F00DB11D639FAA27F00DB11D11
:10237000AA1F649F6627B00DA11D661F829F22279A
:10238000B00DA11D621F739FB00DA11D621F839F21
:10239000A00D611D221F749F3327A00D611D231FF7
:1023A000849F600D211D822F762F6A2F11249F5745
:1023B00050409AF0F1F088234AF0EE0FFF1FBB1F48
:1023C000661F771F881F91505040A9F79E3F510507
:1023D00080F00C943D110C9488115F3FE4F3983E1B
:1023E000D4F3869577956795B795F795E7959F5FB1
:1023F000C1F7FE2B880F911D9695879597F9089543
:1024000019F416F40C9443110C944B120E946D11A4
:10241000B8F39923C9F3B6F39F57550B87FF0E9472
:1024200059120024A0E640EA9001805856959795ED
:1024300028F4805C660F771F881F20F02617370767
:10244000480730F4621B730B840B202931294A2B77
:10245000A69517940794202531254A2758F7660F2B
:10246000771F881F20F026173707480730F4620BC4
:10247000730B840B200D311D411DA09581F7B9010F
:10248000842F9158880F9695879508950E94191169
:10249000880B990B08959F3F31F0915020F4879558
:1024A00077956795B795880F911D9695879597F9BC
:1024B000089591505040660F771F881FD2F70895F6
:0E24C00081E090E0F8940C946512F894FFCF40
:1024CE000A0003000000000017019300E000BE00A8
:1024DE00D2005E0100000000250593000000000000
:1024EE00FE0101026E616E00696E66006F76660017
:1024FE002E00507573682074686520627574746F51
:10250E006E73002020414E5357455220434F444591
:10251E002020200020452D534B494C4C5320323067
:10252E0031382000554C545241534F4E494320549C
:10253E00455354200044697374616E63653A2000FC
:10254E00636D2020002020204D4F544F52205445C3
:10255E005354202020002020202020202020202026
:10256E0020202020202000454D4952415445532023
:10257E00534B494C4C5320002020202020524144E4
:10258E004152202020202020002D3E204155544F26
:10259E00205343414E20202020002020204D414E2C
:1025AE0055414C205343414E2020002020204155C0
:1025BE00544F205343414E20202020002D3E204DCD
:1025CE00414E55414C205343414E2020004D414E2B
:1025DE0055414C2020006465672020004449535427
:1025EE003A00205345543A004155544F20202000C4
:107E0000112484B714BE81FFF0D085E080938100F7
:107E100082E08093C00088E18093C10086E0809377
:107E2000C20080E18093C4008EE0C9D0259A86E02C
:107E300020E33CEF91E0309385002093840096BBD3
:107E4000B09BFECF1D9AA8958150A9F7CC24DD24C4
:107E500088248394B5E0AB2EA1E19A2EF3E0BF2EE7
:107E6000A2D0813461F49FD0082FAFD0023811F036
:107E7000013811F484E001C083E08DD089C08234E0
:107E800011F484E103C0853419F485E0A6D080C0E4
:107E9000853579F488D0E82EFF2485D0082F10E0AE
:107EA000102F00270E291F29000F111F8ED06801E7
:107EB0006FC0863521F484E090D080E0DECF843638
:107EC00009F040C070D06FD0082F6DD080E0C81688
:107ED00080E7D80618F4F601B7BEE895C0E0D1E017
:107EE00062D089930C17E1F7F0E0CF16F0E7DF06D8
:107EF00018F0F601B7BEE89568D007B600FCFDCFD4
:107F0000A601A0E0B1E02C9130E011968C91119780
:107F100090E0982F8827822B932B1296FA010C0160
:107F200087BEE89511244E5F5F4FF1E0A038BF0790
:107F300051F7F601A7BEE89507B600FCFDCF97BE46
:107F4000E89526C08437B1F42ED02DD0F82E2BD052
:107F50003CD0F601EF2C8F010F5F1F4F84911BD097
:107F6000EA94F801C1F70894C11CD11CFA94CF0C13
:107F7000D11C0EC0853739F428D08EE10CD085E9AC
:107F80000AD08FE07ACF813511F488E018D01DD067
:107F900080E101D065CF982F8091C00085FFFCCF94
:107FA0009093C60008958091C00087FFFCCF809118
:107FB000C00084FD01C0A8958091C6000895E0E648
:107FC000F0E098E1908380830895EDDF803219F02E
:107FD00088E0F5DFFFCF84E1DECF1F93182FE3DFCA
:107FE0001150E9F7F2DF1F91089580E0E8DFEE27F6
:047FF000FF270994CA
:027FFE00040479
:0400000300007E007B
:00000001FF
